:100000000A128A112F2E00308A000408840A8207FF
:10001000003465346C3465346334743472346F3452
:1000200053346F346D34653420344C3443344434A9
:100030002034483465346C346C346F342034573495
:0A0040006F3472346C346434003401
:100C5E0083010A128A114F2F01300A128A11482677
:100C6E000A128A1108001C300A128A1148260A122A
:100C7E008A11080018300A128A1148260A128A119F
:100C8E000800F30083120313061373080A128A1165
:100C9E00C2260A128A118312031386170D30F20030
:100CAE00FB30F100F10B592EF20B592E5E2E8312F2
:100CBE00031386130800F300831203130617730839
:100CCE000A128A11C2260A128A1183120313861778
:100CDE000B30F2006230F100F10B732EF20B732E1B
:100CEE0064008312031386130800F5007508013A99
:100CFE00031D822E832E8B2E7408803E0A128A11BB
:100D0E0048260A128A119A2E7508023A031D902E51
:100D1E00912E9A2E7408C03E0A128A1148260A1283
:100D2E008A119A2E9A2E0800F600F401F501B32EC0
:100D3E007408760784000A128A1103200A128A1197
:100D4E000A128A1162260A128A110130F407031858
:100D5E00F50A0030F507B32E7408760784000A12E0
:100D6E008A1103200A128A110038031DBF2EC02ECD
:100D7E009F2EC12E0800F000701CC62EC72ECB2E43
:100D8E00831203130714CE2E831203130710F01CC5
:100D9E00D12ED22ED42E8714D52E8710701DD82E7C
:100DAE00D92EDB2E0715DC2E0711F01DDF2EE02EBF
:100DBE00E22E8715E32E8711701EE62EE72EE92E02
:100DCE000716EA2E0712F01EED2EEE2EF02E8716C7
:100DDE00F12E8712701FF42EF52EF72E0717F82E10
:100DEE000713F01FFB2EFC2EFE2E8717002F8713E6
:100DFE00002F080000300A128A11C2260A128A1128
:100E0E008312031306134130F500EE30F400F40B99
:100E1E000E2FF50B0E2F640030300A128A11482661
:100E2E000A128A110D30F500FB30F400F40B1D2F61
:100E3E00F50B1D2F222F30300A128A1148260A1266
:100E4E008A112730F500F530F400F40B2C2FF50B3A
:100E5E002C2F30300A128A1148260A128A11383085
:100E6E000A128A1148260A128A110C300A128A11A5
:100E7E0048260A128A1101300A128A1148260A12CD
:100E8E008A1106300A128A1148260A128A1108009F
:100E9E0083160313860187010A128A1101270A128B
:100EAE008A11592FF4010314F40D01300A128A111C
:100EBE007C260A128A1101300A128A119B260A1206
:100ECE008A11FA01FB017B08803AFF0080307F0215
:100EDE00031D732F0F307A02031C762F772F792F75
:100EEE009E2F9E2F0230F9000330F800BA30F70023
:100EFE00F70B7F2FF80B7F2FF90B7F2F0A128A111A
:100F0E0041260A128A110130FA070318FB0A003033
:100F1E00FB077B08803AFF0080307F02031D992F6C
:100F2E000F307A02031C9C2F9D2F792F9E2FFA01D2
:100F3E00FB017B08803AFF0080307F02031DA92F42
:100F4E000F307A02031CAC2FAD2FAF2FD42FD42F1E
:100F5E000230F9000330F800BA30F700F70BB52F66
:100F6E00F80BB52FF90BB52F0A128A113A260A1271
:100F7E008A110130FA070318FB0A0030FB077B08C1
:100F8E00803AFF0080307F02031DCF2F0F307A0290
:100F9E00031CD22FD32FAF2FD42F0A128A11332630
:100FAE000A128A11F4010314F40D02300A128A1186
:100FBE007C260A128A1165300A128A1162260A12DA
:100FCE008A1153300A128A1162260A128A111530BA
:100FDE00F9003730F800CA30F700F70BF42FF80B92
:100FEE00F42FF90BF42FFB2F592F592F0A128A11B8
:020FFE000028C9
:00000001FF
